:100000000C94E0000C94FD000C94FD000C94FD0099
:100010000C94FD000C94FD000C94FD000C94FD006C
:100020000C94FD000C94FD000C94FD000C94FD005C
:100030000C94FD000C945C110C94FD000C94FD00DC
:100040000C948B120C94FD000C94FD000C94FD009C
:100050000C94FD000C94FD000C94FD000C94FD002C
:100060000C94FD000C94FD00FCFCCCCCCCCCCCCC96
:10007000FCFC0C0C0C0C0C0C0C0C0C0CFCFC0C0C00
:10008000FCFCC0C0FCFCFCFC0C0CFCFC0C0CFCFCE8
:10009000CCCCCCCCFCFC0C0C0C0CFCFCC0C0FCFC98
:1000A0000C0CFCFCFCFCC0C0FCFCCCCCFCFCFCFC48
:1000B0000C0C0C0C0C0C0C0CFCFCCCCCFCFCCCCCC0
:1000C000FCFCFCFCCCCCFCFC0C0CFCFCFCFCFCCCE0
:1000D000CCCCCCCCCCCCCCCCFCFCFC0C0C0C0C0C90
:1000E0000C0C0C0C0C0C0C0C0C0CFCFCFC0C0C0C80
:1000F000FCFCFCC0C0C0FCFCFCFCFCFC0C0C0CFCC4
:10010000FCFC0C0C0CFCFCFCCCCCCCCCCCCCFCFC1F
:10011000FC0C0C0C0C0C0CFCFCFCC0C0C0FCFCFC73
:100120000C0C0CFCFCFCFCFCFCC0C0C0FCFCFCCCC3
:10013000CCCCFCFCFCFCFCFC0C0C0C0C0C0C0C0CDF
:100140000C0C0C0CFCFCFCCCCCCCFCFCFCCCCCCCCF
:10015000FCFCFCFCFCFCCCCCCCFCFCFC0C0C0CFC3F
:10016000FCFCAAAAAAAA00000008000201000003E1
:100170000407000000000000000001020408102035
:100180004080010204081020010204081020040429
:10019000040404040404020202020202030303032F
:1001A00003030000000023002600290000000000D7
:1001B000250028002B0000000000240027002A0052
:1001C00011241FBECFEFD8E0DEBFCDBF11E0A0E00D
:1001D000B1E0ECEDFBE202C005900D92A632B10752
:1001E000D9F721E0A6E2B1E001C01D92A036B20726
:1001F000E1F70E9435120C94EC150C940000089560
:100200000F93CF93DF938091260190912701209146
:100210003D0130913E016091390170913A01409168
:100220003401509123015130D9F4641B710940917C
:100230004201509143016417750794F0FA01349616
:10024000E617F7076CF0641B750B4AE0469FE00168
:10025000479FD00D1124A0913B01B0913C0102C0F9
:10026000D901EC015091840040912F014A50451B67
:100270004350F0F74D5F19F04A9511F001C00000AE
:1002800040913001AC0FBD1F05B10B7F03C000FAD8
:1002900002F905B90D90000000000000000007FA07
:1002A00002F905B90000000000000000000006FA95
:1002B00002F905B90000000000000000000005FA86
:1002C00002F905B90000000000000000000004FA77
:1002D00002F905B90000000000000000000003FA68
:1002E00002F905B90000000000000000000002FA59
:1002F00002F905B90000000000000000000001FA4A
:1003000002F905B94A9511F00C944701000000006C
:10031000000000FA02F905B905B10B7F02FB0000ED
:100320000000000002F905B940912D0141504093B1
:100330002D0141110DC020912E0120932D012091FE
:100340003001820F911D909327018093260138C0C0
:1003500050911D0140910D015230C1F4423034F0F2
:10036000F901E80FF91F80818F73808380910D015F
:10037000823031F5E0913D01F0913E0180912601FE
:1003800090912701E80FF91F11861AC0423034F00E
:10039000F901E80FF91F80818F77808380910D012B
:1003A000823071F480912601909127010996E091A5
:1003B0003D01F0913E01E80FF91F80818D7F808320
:1003C0002091390130913A016091310150912E0113
:1003D0002F5F3F4F409134015603C0011124840F19
:1003E000911D2817390731F483E592E090930B01B2
:1003F00080930A01DF91CF910F9108958035E8F441
:100400006530D8F4982F9695969596952AE0629F38
:10041000B0011124690F711DE0913B01F0913C0185
:10042000E60FF71F877020E830E002C0359527956A
:100430008A95E2F78081822B80830895982F969584
:100440009695969520913D0130913E018770E091FF
:1004500030016E9FF0011124E90FF11DE20FF31F2F
:10046000413051F420E830E002C0359527958A9557
:10047000E2F78081822B15C041110AC02FE73FEFC0
:1004800002C0359527958A95E2F78081822309C0BD
:1004900020E830E002C0359527958A95E2F7808103
:1004A0008227808308952091390130913A0180910B
:1004B000340190E001972817390759F41092270169
:1004C0001092260180912E0180932D0180E091E011
:1004D0000DC02091390130913A0180913201909103
:1004E00033012817390731F48BE792E090930B0121
:1004F00080930A0108952091390130913A01809149
:10050000320190913301281739070CF44EC08CEA60
:1005100093E0909389008093880010923A011092A2
:1005200039018091350190913601A0913701B09148
:1005300038010196A11DB11D8093350190933601BC
:10054000A0933701B093380180912801909129013F
:10055000A0912A01B0912B01892B8A2B8B2B09F1B9
:100560008091280190912901A0912A01B0912B013D
:10057000181619061A061B0684F580912801909119
:100580002901A0912A01B0912B010197A109B1097C
:100590008093280190932901A0932A01B0932B0105
:1005A00008951092B1002B9808952091390130914F
:1005B0003A0180912C01992787FD909528173907DA
:1005C00061F48AE490E0909389008093880083E549
:1005D00092E090930B0180930A0108954F925F92ED
:1005E0006F927F928F929F92AF92BF92CF92DF9243
:1005F000EF92FF926C012A013B011092B000109221
:10060000B1008091B00082608093B0008091B10011
:1006100081608093B100239AE12CF12C60E072E1BB
:100620008AE790E0A70196010E94561449015A01F9
:1006300021503109410951092F3F3105410551052B
:1006400009F008F46BC060E472E48FE090E0A70169
:1006500096010E94561421503109410951092F3F3A
:1006600031054105510509F008F45AC060E970ED03
:1006700083E090E0A70196010E94561421503109B1
:10068000410951092F3F31054105510509F008F491
:1006900049C068E478EE81E090E0A70196010E94ED
:1006A000561421503109410951092F3F31054105A7
:1006B0005105D1F1C8F164E274EF80E090E0A70148
:1006C00096010E94561421503109410951092F3FCA
:1006D00031054105510551F148F162E17AE780E0C9
:1006E00090E0A70196010E9456142150310941095A
:1006F00051092F3F310541055105D1F0C8F0A50141
:1007000094018AE055954795379527958A95D1F7B5
:10071000215031094109510987E00BC081E009C02E
:1007200082E007C083E005C084E003C085E001C02B
:1007300086E08093B10045284628472849F010926A
:1007400028011092290110922A0110922B010BC04E
:100750008FEF9FEFDC018093280190932901A093F4
:100760002A01B0932B012093B3008091B0008F77C2
:100770008093B0008091B00080648093B000FF90BF
:10078000EF90DF90CF90BF90AF909F908F907F9031
:100790006F905F904F90089580E10E940B12892B1B
:1007A000D1F481E0809352011092510110925001D6
:1007B00080E092E090934F0180934E0190934D0121
:1007C00080934C0190934B0180934A01909349018F
:1007D00080934801089510925201089581E10E948A
:1007E0000B12019719F410923F0107C080913F014D
:1007F0008A301CF48F5F80933F0180913F018430E9
:1008000051F480910D018F5F80930D0185301CF0B4
:1008100081E080930D0108951092470110924601E6
:100820000E94CC03109245018EEE9FEF90934301FE
:100830008093420180912001809341018093400187
:1008400081E0809323011092220180932101089579
:10085000CF92DF92EF92FF920F931F93CF93DF938C
:1008600028E230E04EE150E064E170E0AAE0B0E060
:1008700080E090E01AE0F0904201E0904401E091C5
:100880003D01F0913E01C0903B01D0903C01E80F4A
:10089000F91F0E2DCAE00C02E00DF11D1124E081BC
:1008A000E601C80FD91FE883F0FC37C0C0914401AE
:1008B000E0913D01F0913E01E80FF91FDAE0CD0231
:1008C000E00DF11D1124C081E0913B01F0913C014C
:1008D000EA0FFB1FC083E0914401FF27E7FDF0957D
:1008E00031961E9FE0011F9FD00D1124C80FD91F04
:1008F000E0913D01F0913E01EC0FFD1FC081E091C0
:100900003B01F0913C01E60FF71FC083E0914401E9
:10091000FF27E7FDF09531963CC0E0914401FF27A9
:10092000E7FDF09531961E9FE0011F9FD00D112429
:10093000C80FD91FE0913D01F0913E01EC0FFD1F62
:10094000C081E0913B01F0913C01EA0FFB1FC083A5
:10095000E0914401FF27E7FDF09531961E9FE001ED
:100960001F9FD00D1124C80FD91FE0913D01F091B8
:100970003E01EC0FFD1FC081E0913B01F0913C0175
:10098000E60FF71FC083E0914401FF27E7FDF095D4
:1009900032961E9FE0011F9FD00D1124C80FD91F52
:1009A000E0913D01F0913E01EC0FFD1FC081E0910F
:1009B0003B01F0913C01E40FF51FC083E09144013D
:1009C000FF27E7FDF09532961E9FE0011F9FD00D97
:1009D0001124C80FD91FE0913D01F0913E01EC0FA9
:1009E000FD1FC081E0913B01F0913C01E20FF31F3C
:1009F000C083019611966F5F7F4F4F5F5F4F2F5FF0
:100A00003F4F8A30910509F036CF90911D018091BA
:100A10004201923009F083C080FD62C08AE090E01C
:100A200020910D0122304CF0E0913B01F0913C010E
:100A3000E80FF91F20812F73208320910D012230B0
:100A400039F4E0913B01F0913C01E80FF91F118668
:100A500044968233910521F760E0809145010E9420
:100A6000FE0161E0809145010E94FE0162E08091FB
:100A700045010E94FE0180911D01823009F099C05C
:100A800063E0809145010E94FE0164E08091450190
:100A90000E94FE018091450160E08F5F0E94FE018F
:100AA0008091450161E08F5F0E94FE0180914501C8
:100AB00062E08F5F0E94FE018091450163E08F5FDD
:100AC0000E94FE018091450164E08F5FDF91CF912C
:100AD0001F910F91FF90EF90DF90CF900C94FE014B
:100AE00080E090E020910D0122304CF0E0913B013C
:100AF000F0913C01E80FF91F20812F732083209192
:100B00000D01223039F4E0913B01F0913C01E80FF6
:100B1000F91F118644968C33910521F79DCF80FDF6
:100B200024C08AE090E020910D0122304CF0E09149
:100B30003B01F0913C01E80FF91F20812F772083C2
:100B400020910D01223061F4E0913B01F0913C01D4
:100B50009C01275F3F4FE20FF31F20812D7F2083F1
:100B6000449682339105F9F677CF80E090E02091AA
:100B70000D0122304CF0E0913B01F0913C01E80F77
:100B8000F91F20812F77208320910D01223061F4FD
:100B9000E0913B01F0913C019C01275F3F4FE20F48
:100BA000F31F20812D7F208344968C339105F9F625
:100BB00053CFDF91CF911F910F91FF90EF90DF9076
:100BC000CF9008958CE00E940B12019711F582E0FE
:100BD00080931D019AE490931C0193E090931B0174
:100BE00093E190931A0124E32093140126E32093C8
:100BF000130126E420931201909319019BE1909335
:100C0000180194E29093170195E2909316019DE2EA
:100C100022C081E080931D019FE490931C0192E02B
:100C200090931B0192E190931A019AE3909314011F
:100C30009CE3909313019CE49093120195E19093AF
:100C400019019DE19093180198E2909317019BE29E
:100C50009093160193E39093150180931101809373
:100C60001001089587E00E940B1220912001019746
:100C7000D1F42130B9F580914101880F8093410171
:100C8000809140018F3F11F0813011F4880F07C02F
:100C90008F3F14F48BEF03C082301CF085E080930B
:100CA000400182E01DC02230E9F48091410187FDBE
:100CB0008F5F859580934101809140018E3F11F0B7
:100CC000823021F487FD8F5F859507C08F3F14F434
:100CD0008DEF03C082301CF083E08093400181E0FF
:100CE0008093200188E00E940B12019721F481E09B
:100CF00080931F0102C010921F0186E00E940B1218
:100D0000019711F48EE001C087E080931E010895E1
:100D100080E090E03091300120913101329F9001CC
:100D20001124821793074CF4E0913D01F0913E01AC
:100D3000E80FF91F10820196EDCF0895309131012F
:100D400020912E0140913401230390011124240F9E
:100D5000311D2F5F3F4F009781F040913901509135
:100D60003A0142175307C9F74091390150913A01AE
:100D700042175307C9F30197EECF0895CF93C82FB9
:100D800081E090E00E949E068C2F8295807F8150AA
:100D900080932F01CF910895CF93C82F81E090E0E9
:100DA0000E949E06C0933401CF9108952091300196
:100DB000E82FF0E098E0299F90011124E217F30753
:100DC00034F490913101691710F40C941E020895C7
:100DD0000F931F93CF93DF93FB016417750749F4BB
:100DE000422F682F8E2FDF91CF911F910F910C947E
:100DF000D6064617570720F4DB01BB27FA01AD01E1
:100E0000EF01C770DD27AFEFB0E0BD010C2E02C0CF
:100E1000759567950A94E2F793E0F695E7959A95AC
:100E2000E1F790913001989FE00DF11D11248A01A6
:100E30000770112702C0B595A7950A95E2F73A2FDA
:100E40003095DA0143E0B695A7954A95E1F7909180
:100E50003001989FA00DB11D1124EA17FB0711F472
:100E6000632330E02130D9F4CF010196C0913D01D8
:100E7000D0913E01CE0FDF1F2881262B28832FEF34
:100E8000E0913D01F0913E01E80FF91F8A179B07A1
:100E900018F420830196F4CF8081832B1DC021118B
:100EA0001CC0CF010196C0913D01D0913E01CE0FF3
:100EB000DF1F6095288126232883E0913D01F09172
:100EC0003E01E80FF91F8A179B0718F4108201965C
:100ED000F4CF3095808183238083DF91CF911F9160
:100EE0000F910895CF93DF936417750729F4422F6C
:100EF000DF91CF910C94D6064617570720F4FB01DB
:100F0000FF27BA01AF01982F9770A0E8B0E002C0A8
:100F1000B595A7959A95E2F790913001969FF001CB
:100F2000979FF00D1124869586958695E80FF11D03
:100F3000213099F44617570738F1C0913D01D091FF
:100F40003E01CE0FDF1F88818A2B8883809130017C
:100F5000E80FF11D6F5F7F4FEDCF211115C09A2F64
:100F600090954617570780F0A0913D01B0913E0142
:100F7000AE0FBF1F8C9189238C9380913001E80FB5
:100F8000F11D6F5F7F4FEDCFDF91CF9108952F92CD
:100F90003F924F925F926F927F928F929F92AF9209
:100FA000BF92CF92DF92EF92FF920F931F93CF9356
:100FB000DF9300D000D0CDB7DEB7962F322F202F91
:100FC000682F70E07C836B83E091300178E0E79FCD
:100FD000F00111246B817C81E617F7070CF4B8C08F
:100FE00050913101591708F4B3C0642E712CE0916F
:100FF000300178E0E79FF0011124E615F7050CF4C5
:10100000A7C050913101531708F4A2C084131CC02B
:10101000432F50E0692F70E00F900F900F900F90CA
:10102000DF91CF911F910F91FF90EF90DF90CF90C4
:10103000BF90AF909F908F907F906F905F904F90F8
:101040003F902F900C94720793131CC0A3016B81E7
:101050007C81892F0F900F900F900F90DF91CF918F
:101060001F910F91FF90EF90DF90CF90BF90AF90C6
:101070009F908F907F906F905F904F903F902F90B8
:101080000C94E806C92ED12C481738F4EB81FC816A
:10109000E619F7093F018FEF05C04B815C81641AA7
:1010A000750A81E0E32EF12C391730F4B6016E1980
:1010B0007F097B013FEF03C0EC18FD0831E06E149F
:1010C0007F043CF04E2D9F2D7301642E792E90E00D
:1010D00001C091E0660C771C5301AE18BF08870170
:1010E000000F111F812C912C432E552447FC509446
:1010F000282E332427FC3094E814F9044CF1422FB5
:101100006C2D8B812A8399830E941E022A819981EA
:10111000B7FC0DC0913039F4EB81FC81E20DF31D79
:10112000FC83EB8302C0C40CD51CA01AB10A913019
:1011300019F4C40CD51C06C04B815C81420D531DB3
:101140005C834B83A60CB71C5FEF851A950AD4CF3E
:101150000F900F900F900F90DF91CF911F910F91F3
:10116000FF90EF90DF90CF90BF90AF909F908F90C7
:101170007F906F905F904F903F902F900895CF9207
:10118000DF92EF92FF920F93CF93DF93EC016B010D
:101190008130910519F4E0901B0111C08530910553
:1011A00019F4E09012010BC08430910519F4E0901D
:1011B000130105C08230910531F4E0901A01FF243B
:1011C000E7FCF09408C08330910519F4E090140115
:1011D000F6CFE12CF12C80911E019601280F311DD4
:1011E00087FD3A951C141D0414F46C2D01C061E0B8
:1011F00080910F01992787FD9095AC0141505109CD
:10120000241735071CF09C012250310901E04E2DB6
:101210008E2D0E94C70780912301813009F0EEC016
:10122000809122018111EAC08091410187FF0CC0A9
:1012300080914501992787FD90958E159F05E1F0D6
:101240002FEFE21AF20A14C0882309F4D7C0809164
:101250004501992787FD909520911001E21AF10828
:1012600027FDF3948E159F0539F04FEFE41AF40A29
:101270008E159F0509F0C2C080914401992787FD12
:101280009095960121503109821793070CF4B6C04E
:1012900020911E01B601620F711D27FD7A95681716
:1012A00079070CF4ABC040E250E060E070E088EEFB
:1012B00093E00E94EE0290910D01809141019330E4
:1012C00049F587FD9BC090912101913029F4C430EC
:1012D000D10509F093C007C0923069F4C330D1053D
:1012E00009F08CC008C0882331F0819580934101BA
:1012F00082E08093210180914101181674F590914C
:101300002101923051F5239741F581958093410158
:1013100081E008C0943049F41816FCF4819580935C
:10132000410182E08093210118C087FF09C0C130CC
:10133000D10519F0C430D10519F48195809341018C
:101340002091410112164CF4CE010297029710F041
:10135000259719F421952093410190911F018091C7
:101360001E0120914401E09120019130C9F4622FC7
:10137000772767FD7095382F87FF02C033E0380F5D
:1013800035953595A601430F511D37FD5A956417C4
:10139000750734F4E13011F48DEF2EC08BEF2CC0C3
:1013A000332727FD3095482F87FF02C041E0480FC3
:1013B0004595B601640F711D47FD7A9526173707CD
:1013C00014F4E19511C0992379F073E08702C0010C
:1013D000112497FD039695958795959587958C0D86
:1013E0009D1D281739071CF4E093400107C0E13028
:1013F00011F483E001C085E080934001DF91CF913B
:101400000F91FF90EF90DF90CF9008954F925F92F1
:101410006F927F92AF92BF92CF92DF92EF92FF9244
:101420000F931F93CF93DF9380915201882309F488
:1014300077C0809150019091510101969093510194
:101440008093500103970CF45EC0109251011092EA
:10145000500180E00E940B12892B99F480914E017B
:1014600090914F01855B9F4F90934F0180934E0168
:101470008115944034F08FEF93E090934F01809367
:101480004E0181E00E940B12892B81F480914E0164
:1014900090914F018B54910990934F0180934E018D
:1014A00097FF04C010924F0110924E0182E00E94FB
:1014B0000B12892B99F480914C0190914D01855B21
:1014C0009F4F90934D0180934C018115944034F0CF
:1014D0008FEF93E090934D0180934C0183E00E9445
:1014E0000B12892B81F480914C0190914D018B540A
:1014F000910990934D0180934C0197FF04C0109285
:101500004D0110924C0180914E0190914F019093AA
:101510004B0180934A0180914C0190914D010AC08A
:1015200084E00E948C1190934B0180934A0185E0E6
:101530000E948C11909349018093480180911E0173
:10154000C2E0D0E05E01A81AB10887FDB394CC24B4
:10155000B7FCC094DC2C40904A0150904B01B20182
:10156000882777FD8095982F20910F01332727FD3D
:101570003095225031092901662457FC6094762C5D
:101580007F926F925F924F92EE24EA9413E0F12ED5
:1015900000E010E020E030E0A9010E9444127093C6
:1015A0004B0160934A0180911E015E01A81AB108A7
:1015B00087FDB394CC24B7FCC094DC2C4090480148
:1015C00050904901B201882777FD8095982F20918E
:1015D0000F01332727FD3095225031092901662458
:1015E00057FC6094762C7F926F925F924F9220E02E
:1015F00030E0A9010E9444127093490160934801B0
:1016000080910D0181502DB73EB7285F3F4F0FB637
:10161000F8943EBF0FBE2DBF823080F460914A0126
:1016200070914B0181E090E00E94BF0860914801F9
:101630007091490185E090E00E94BF0880910D0102
:10164000823081F460914A0170914B0184E090E016
:101650000E94BF08609148017091490182E090E0CA
:101660000E94BF0880910D01833081F460914A018E
:1016700070914B0184E090E00E94BF0860914801A6
:101680007091490183E090E00E94BF0880910D01B4
:101690008430B1F4609148017091490183E090E099
:1016A000DF91CF911F910F91FF90EF90DF90CF903E
:1016B000BF90AF907F906F905F904F900C94BF0859
:1016C000DF91CF911F910F91FF90EF90DF90CF901E
:1016D000BF90AF907F906F905F904F9008952F9242
:1016E0003F924F925F926F927F928F929F92AF92B2
:1016F000BF92CF92DF92EF92FF920F931F93CF93FF
:10170000DF93CDB7DEB72A970FB6F894DEBF0FBED2
:10171000CDBFA82FA77078E07A1B011106C0FA018F
:10172000E20FF31F04912F5F3F4FE11006C0FA0153
:10173000E20FF31FE4902F5F3F4F902F97700695B5
:1017400006950695992311F00F5F01C098E08695E4
:1017500086958695C82ED12CDC82CB826A2E712C80
:10176000D301A90FB11DB887AF83AFEFB0E00F80F1
:1017700002C0B595A7950A94E2F7C72ED12CDA825C
:10178000C982013011F4EA2F01C0E0E08FEF90E050
:101790004C01072E01C0880C0A94EAF78E2AAA2E63
:1017A000AF81B885189702C095958795AA95E2F7FD
:1017B000B82E1A861986862F90E09E838D8310E0BE
:1017C0000150110969856E1508F092C0A091300191
:1017D0008D819E81C984DA848C0D9D1DA89FB001E6
:1017E000A99F700D11248B819C81680F791FE09156
:1017F0003D01F0913E01E60FF71FF0808F2D88210B
:101800008083C9010196F901E40FF51F9490E091DE
:101810003D01F0913E01E60FF71FC92CD12C062C9B
:1018200002C0D594C7940A94E2F7D080DC28D08215
:101830001801280E391E2B01421A530A9201280F53
:10184000391F60913D0170913E01C92CD12C821548
:10185000930508F5DB01A20FB31FFC90098001C0BE
:10186000CC0C0A94EAF7CC92FA01E80FF91F949095
:10187000E0913D01F0913E01E20FF31F292D30E090
:10188000062C02C0359527950A94E2F73081322B59
:1018900030830196D3CFAF81B885189744F4F9010E
:1018A0003197E60FF71FFA2060816F2909C0AF81D9
:1018B000B885189731F0FB01E20FF31F60816B21AF
:1018C0006083E0913D01F0913E01E20FF31F09803A
:1018D00002C0CC0CDD1C0A94E2F720812C29208365
:1018E00029853A852F5F3F4F3A8729879C016ACF28
:1018F0002A960FB6F894DEBF0FBECDBFDF91CF9111
:101900001F910F91FF90EF90DF90CF90BF90AF901D
:101910009F908F907F906F905F904F903F902F900F
:101920000895EF920F93CF93DF93C0E0D0E08091C2
:101930001C01992787FD90950897C817D907BCF413
:10194000EE24E39408E020E030E042E651E060E07D
:101950008C2F0E946F0B60910F01615020E030E0EE
:1019600042E651E08C2F0E946F0B2896E0CF28971B
:1019700080911C01992787FD9095C817D90774F4A9
:1019800041E060E08C2F0E94D60660910F0161500B
:1019900041E08C2F0E94D6062296EACF80910D015D
:1019A000823039F080910D018350823008F0AEC052
:1019B000B4C080911D01823019F080E090E054C0E5
:1019C00080E090E020910E01422F552747FD509571
:1019D0006AE026029001112482179307BCF4E0917B
:1019E0003D01F0913E01E80FF91F2081206C20831A
:1019F0009C01275F3F4FE0913D01F0913E01E20FD6
:101A0000F31F2081206C20830A96DCCF20910F01E8
:101A1000332727FD3095241B350B4AE0429FC00138
:101A2000439F900D112420910F014AE02402900160
:101A30001124821793070CF0B5CFE0913D01F0918E
:101A40003E01E80FF91F2081206C20839C01275F55
:101A50003F4FE0913D01F0913E01E20FF31F2081E5
:101A6000206C20830A96DFCF20910E01422F55274C
:101A700047FD50956AE026029001112482179307D2
:101A8000BCF4E0913D01F0913E01E80FF91F208187
:101A9000206820839C01275F3F4FE0913D01F0913A
:101AA0003E01E20FF31F2081226020830A96DCCFE3
:101AB00020910F01332727FD3095241B350B4AE079
:101AC000429FC001439F900D112420910F014AE0D5
:101AD000240290011124821793070CF063CFE09148
:101AE0003D01F0913E01E80FF91F2081206820831D
:101AF0009C01275F3F4FE0913D01F0913E01E20FD5
:101B0000F31F2081226020830A96DFCF80910D0190
:101B10008150823008F0B1C031C080911D01823007
:101B200019F080E090E016C080E090E020910F0175
:101B30006AE0260290011124821793073CF7E09196
:101B40003D01F0913E01E80FF91F2081206C2083B8
:101B50000A96ECCF20910F014AE024029001112453
:101B6000821793079CF6E0913D01F0913E01E80F4A
:101B7000F91F2081206820830A96ECCF90910C01F8
:101B800080911D01913009F045C044E050E0823061
:101B900021F089E190E060E820C088E190E068E011
:101BA00020910F01332727FD30952250310942172C
:101BB00053070CF062C0E0913D01F0913E01E80F47
:101BC000F91F6083E0913D01F0913E01E80FF91F9C
:101BD000628788964C5F5F4FE3CF20910F013327D8
:101BE00027FD309522503109421753070CF045C0AC
:101BF000E0913D01F0913E01E80FF91F6083E09113
:101C00003D01F0913E01E80FF91F628788964C5F15
:101C10005F4FE3CF823031F082E090E02FE030E0A0
:101C200060E818C082E090E02EE030E068E040918B
:101C30000F01552747FD509584179507F4F4E0915F
:101C40003D01F0913E01E20FF31F6083265F3F4F9D
:101C50000196EDCF40910F01552747FD5095841710
:101C600095075CF4E0913D01F0913E01E20FF31F16
:101C70006083265F3F4F0196EDCFDF91CF910F91AB
:101C8000EF900895EF920F9390910C01913061F4D1
:101C90009FE0949F9001959F300D1124AFE0EA2EB4
:101CA00008E04CEC50E00BC09AE0949F9001959FA7
:101CB000300D1124FAE0EF2E08E048E650E00E94D3
:101CC0006F0B0F91EF900895409147014A309CF0BF
:101CD0008091190141E050E063E070E0992787FDB1
:101CE00090950E94420E40914701552747FD50951F
:101CF0004A50510903C0552747FD5095809118015E
:101D000063E070E0992787FD90950E94420E8091D4
:101D10000D01843019F1409146014A309CF08091C8
:101D2000160141E050E063E070E0992787FD90954F
:101D30000E94420E40914601552747FD50954A505A
:101D4000510903C0552747FD50958091150163E067
:101D500070E0992787FD90950C94420E089581E0DC
:101D600090E00E949E060E94E2050E9488060E9462
:101D7000EE030E94910C0E94640E0E9432060E94A3
:101D8000060A85E00E940B12892B11F40C940C04B6
:101D90007091410160914501670F60934501209169
:101DA00040018091420190914301820F911D27FDD6
:101DB0009A95909343018093420197FD05C09595B4
:101DC00087958093440109C09C012150310937FD5A
:101DD0009C01359527952093440180910D01823017
:101DE00009F05EC080912301813009F059C0409113
:101DF0000E01552747FD509520914401332727FDBB
:101E00003095CA010196821793075CF480910F0107
:101E1000992787FD9095841B950B281739070CF49B
:101E20003FC077FF11C08091110186176CF067FDEC
:101E30000BC071957093410140E250E060E070E0AA
:101E400084EF91E00E94EE0240914101141644F5A6
:101E50006091450150911C01262F332727FD3095B5
:101E6000852F992787FD909570911001871B910907
:101E700077FD939570911101871B910977FD9395DB
:101E8000281739076CF065175CF4419540934101C0
:101E900040E250E060E070E084EF91E00E94EE02EA
:101EA00080910D018330CCF0809123018130A9F421
:101EB0008091410187FF11C020914501909111014E
:101EC00092175CF081958093410140E250E060E020
:101ED00070E084EF91E00E94EE02809141011816BB
:101EE0000CF051C02091450190911C0129170CF470
:101EF0004AC081958093410180912301811104C0E2
:101F000081E0809323013FC040E250E060E070E058
:101F100080ED97E00E94EE028091220181111EC0A7
:101F200080910D01833051F480912101813031F491
:101F3000809146018F5F8093460105C080914701E3
:101F40008F5F80934701809147018F3024F4809107
:101F500046018F301CF081E08093220160911C01CA
:101F6000772767FD7095872F972F0E94431323E3F0
:101F700033E343E35FE30E94A7130E9410136093CF
:101F80004501109223014091410147FF44C0209137
:101F90004501332727FD30958091100199278195C0
:101FA0000CF4909582179307B4F141954093410149
:101FB00080912301811104C081E0809323012BC013
:101FC00040E250E060E070E080ED97E00E94EE02B9
:101FD0008091220181110AC0809146018F5F809318
:101FE00046018F301CF081E08093220160911C013A
:101FF000772767FD7095872F972F0E9443132AE953
:1020000039E949E95EE30E94A7130E941013609327
:102010004501109223014091400147FF05C0809186
:1020200044018230E4F410C04423C9F080910F01D0
:10203000992787FD9095039720914401332727FD29
:102040003095281739075CF041954093400140E2F4
:1020500050E060E070E084EF91E00E94EE02809139
:102060002301813011F40C942804089550933E010B
:1020700040933D018093300160933101109235010E
:1020800010923601109237011092380180910C01A4
:102090006091310170E0813031F584E091E00E947F
:1020A000421460932E01209131016203B00111248A
:1020B00077FF02C06F5F7F4F75956795719561954A
:1020C000710964566093340187EC80932F0183E09B
:1020D00080932C0188E391E0909333018093320147
:1020E0008FEF93E025C088ED90E00E94421460934A
:1020F0002E01209131016203B001112477FF02C04B
:102100006F5F7F4F759567957195619571096D57F3
:10211000609334018FEB80932F0183E080932C0137
:1021200086E091E0909333018093320187EF93E052
:10213000909387008093860080912E0180932D01DB
:10214000229A219A2A98299A239A82EC80938000D5
:1021500089E1809381008AE490E0909389008093E4
:1021600088008091320190913301019690933A0159
:10217000809339018BE792E090930B0180930A01E1
:1021800081E080936F00789408951F93CF93DF933D
:102190001F92CDB7DEB7982F987FD9F0182F1695DC
:1021A00016951695169FC001112469830E94C514C7
:1021B000AC0190933E0180933D016981009739F015
:1021C000812F0E9436100E94880680E003C084E0C0
:1021D00001C081E00F90DF91CF911F91089584E0BD
:1021E0000E940B12019791F483E780930F0189E11C
:1021F00080930E0181E080930C0164E780E50E94EA
:10220000C5108FE20E94BE0682E310C080E6809374
:102210000F0185E180930E0110920C0161E680E5CB
:102220000E94C51081E30E94BE068DE20C94CC068C
:1022300062E080E00E94D21162E081E00E94D2114F
:1022400062E082E00E94D21162E083E00E94D2113B
:1022500062E080E10E94D21160E084E00E94D2112D
:1022600060E085E00E94D21162E081E10E94D2111B
:1022700062E085E00E94D21162E087E00E94D21104
:1022800062E088E00E94D21162E086E00E94D211F2
:1022900062E08CE00E94D21162E084E00E94D211E0
:1022A00082E390E00E94C51490933C0180933B012F
:1022B0000E94EF100C940C041F920F920FB60F9215
:1022C00011242F933F934F935F936F937F938F933B
:1022D0009F93AF93BF93EF93FF93E0910A01F09127
:1022E0000B0109958091390190913A0101969093E3
:1022F0003A0180933901FF91EF91BF91AF919F9186
:102300008F917F916F915F914F913F912F910F909E
:102310000FBE0F901F9018958E3008F08E5087706A
:102320002091240190E4299F90011124822B809315
:102330007C0080917A00806480937A0080917A009A
:1023400086FDFCCF809178002091790090E0922B5F
:102350000895833081F028F4813099F08230A1F023
:1023600008958730A9F08830B9F08430D1F4809195
:1023700080008F7D03C0809180008F7780938000E4
:10238000089584B58F7702C084B58F7D84BD08958C
:102390008091B0008F7703C08091B0008F7D8093D3
:1023A000B0000895CF93DF9390E0FC01E658FE4F14
:1023B0002491FC01E257FE4F8491882349F190E07B
:1023C000880F991FFC01EA54FE4FA591B4918455E2
:1023D0009E4FFC01C591D4919FB7611108C0F8943C
:1023E0008C91209582238C93888182230AC062304D
:1023F00051F4F8948C91322F309583238C938881FB
:10240000822B888304C0F8948C91822B8C939FBF7D
:10241000DF91CF910895CF93DF93282F30E0F9011A
:10242000EA59FE4F8491F901E658FE4FD491F90123
:10243000E257FE4FC491CC2391F081110E94A91163
:10244000EC2FF0E0EE0FFF1FEE55FE4FA591B4917B
:102450002C912D2381E090E021F480E002C080E007
:1024600090E0DF91CF91089508950E94D5120E94C7
:1024700034120E941811C0E0D0E00E94AF0E2097E5
:10248000E1F30E940000F9CF4F925F926F927F922A
:10249000AF92BF92CF92DF92EF92FF920F931F9372
:1024A000CF93DF93CDB7DEB729013A01621B730BDF
:1024B000840B950B29893A894B895C892A193B0938
:1024C0004C095D09298B3A8B4B8B5C8B9B01AC01D2
:1024D00069897A898B899C890E943214E418F508ED
:1024E00006091709A80197010E9456142A0D3B1DE1
:1024F0004C1D5D1DCA01B901DF91CF911F910F9154
:10250000FF90EF90DF90CF90BF90AF907F906F9053
:102510005F904F9008951F920F920FB60F92112463
:102520002F933F938F939F93AF93BF9380915401C9
:1025300090915501A0915601B091570130915301EE
:1025400023E0230F2D3720F40196A11DB11D05C0F6
:1025500026E8230F0296A11DB11D209353018093FD
:10256000540190935501A0935601B0935701809167
:10257000580190915901A0915A01B0915B010196C7
:10258000A11DB11D8093580190935901A0935A0148
:10259000B0935B01BF91AF919F918F913F912F912C
:1025A0000F900FBE0F901F901895789484B582609D
:1025B00084BD84B5816084BD85B5826085BD85B5E7
:1025C000816085BDEEE6F0E0808181608083E1E896
:1025D000F0E01082808182608083808181608083CE
:1025E000E0E8F0E0808181608083E1EBF0E08081D1
:1025F00084608083E0EBF0E0808181608083EAE7A3
:10260000F0E080818460808380818260808380812B
:10261000816080838081806880831092C1000895EA
:1026200004D06894B1118DC0089570D088F09F5780
:1026300090F0B92F9927B751A0F0D1F0660F771F0E
:10264000881F991F1AF0BA95C9F712C0B13081F0EE
:1026500077D0B1E0089574C0672F782F8827B85FCE
:1026600039F0B93FCCF3869577956795B395D9F74F
:102670003EF490958095709561957F4F8F4F9F4F59
:102680000895E89409C097FB3EF490958095709565
:1026900061957F4F8F4F9F4F9923A9F0F92F96E9AE
:1026A000BB279395F695879577956795B795F11123
:1026B000F8CFFAF4BB0F11F460FF1BC06F5F7F4FC0
:1026C0008F4F9F4F16C0882311F096E911C07723D2
:1026D00021F09EE8872F762F05C0662371F096E8DB
:1026E000862F70E060E02AF09A95660F771F881FAA
:1026F000DAF7880F9695879597F9089557FD9058C2
:10270000440F551F59F05F3F71F04795880F97FBB5
:10271000991F61F09F3F79F087950895121613066F
:102720001406551FF2CF4695F1DF08C0161617069E
:102730001806991FF1CF86957105610508940895D3
:10274000E894BB2766277727CB0197F908950BD02C
:1027500078C069D028F06ED018F0952309F05AC0DF
:102760005FC01124EECFCADFA0F3959FD1F3950F80
:1027700050E0551F629FF001729FBB27F00DB11D05
:10278000639FAA27F00DB11DAA1F649F6627B00D95
:10279000A11D661F829F2227B00DA11D621F739F7E
:1027A000B00DA11D621F839FA00D611D221F749F8C
:1027B0003327A00D611D231F849F600D211D822FD3
:1027C000762F6A2F11249F5750408AF0E1F088231A
:1027D0004AF0EE0FFF1FBB1F661F771F881F915027
:1027E0005040A9F79E3F510570F014C0AACF5F3F3B
:1027F000ECF3983EDCF3869577956795B795F7955A
:10280000E7959F5FC1F7FE2B880F911D96958795E1
:1028100097F9089597F99F6780E870E060E0089560
:102820009FEF80EC089500240A94161617061806E8
:102830000906089500240A941216130614060506C4
:102840000895092E0394000C11F4882352F0BB0F55
:1028500040F4BF2B11F460FF04C06F5F7F4F8F4FB8
:102860009F4F0895DB018F939F930E947514BF9132
:10287000AF91A29F800D911DA39F900DB29F900DCF
:102880001124089597FB072E16F4009407D077FDC6
:1028900009D00E94801407FC05D03EF490958195E4
:1028A0009F4F0895709561957F4F0895052E97FB72
:1028B0001EF400940E946D1457FD07D00E949414DA
:1028C00007FC03D04EF40C946D1450954095309550
:1028D00021953F4F4F4F5F4F08959095809570958C
:1028E00061957F4F8F4F9F4F08950E94B614A59F0B
:1028F000900DB49F900DA49F800D911D11240895FB
:10290000AA1BBB1B51E107C0AA1FBB1FA617B70715
:1029100010F0A61BB70B881F991F5A95A9F7809531
:102920009095BC01CD010895A1E21A2EAA1BBB1BF4
:10293000FD010DC0AA1FBB1FEE1FFF1FA217B3078B
:10294000E407F50720F0A21BB30BE40BF50B661FA1
:10295000771F881F991F1A9469F760957095809565
:1029600090959B01AC01BD01CF010895A29FB001DC
:10297000B39FC001A39F700D811D1124911DB29FB3
:10298000700D811D1124911D0895CF93DF93823026
:10299000910510F482E090E0E0915E01F0915F011A
:1029A00020E030E0A0E0B0E0309739F14081518183
:1029B00048175907B8F04817590771F48281938175
:1029C000109729F013969C938E9312972CC0909396
:1029D0005F0180935E0127C02115310531F0421758
:1029E000530718F0A901DB0101C0EF019A01BD01F5
:1029F000DF010280F381E02DD7CF21153105F9F0F9
:102A0000281B390B2430310580F48A819B816115A4
:102A1000710521F0FB019383828304C090935F01D1
:102A200080935E01FE01329644C0FE01E20FF31F67
:102A30008193919322503109398328833AC02091A0
:102A40005C0130915D01232B41F420910201309112
:102A5000030130935D0120935C01209100013091CE
:102A600001012115310541F42DB73EB74091040114
:102A700050910501241B350BE0915C01F0915D0143
:102A8000E217F307A0F42E1B3F0B2817390778F045
:102A9000AC014E5F5F4F2417350748F04E0F5F1FA4
:102AA00050935D0140935C018193919302C0E0E0FB
:102AB000F0E0CF01DF91CF910895CF93DF9300979E
:102AC00009F487C0FC01329713821282C0915E0123
:102AD000D0915F01209781F420813181280F391F27
:102AE00080915C0190915D018217930779F5F093D5
:102AF0005D01E0935C016DC0DE0120E030E0AE17C7
:102B0000BF0750F412964D915C9113979D014115AA
:102B1000510509F1DA01F3CFB383A28340815181DA
:102B2000840F951F8A179B0771F48D919C911197C3
:102B3000840F951F02969183808312968D919C91AC
:102B40001397938382832115310529F4F0935F0154
:102B5000E0935E013EC0D9011396FC93EE93129769
:102B60004D915D91A40FB51FEA17FB0779F48081A1
:102B70009181840F951F0296D90111969C938E9393
:102B80008281938113969C938E931297E0E0F0E0FC
:102B90008A819B81009719F0FE01EC01F9CFCE01EB
:102BA000029628813981820F931F20915C01309118
:102BB0005D012817390769F4309729F410925F01F5
:102BC00010925E0102C013821282D0935D01C09305
:0C2BD0005C01DF91CF910895F894FFCFD5
:102BDC0000006001800001000000FF00010119737A
:102BEC0001014C3C3A332B281D1512024F010E01EA
:062BFC00010101010100CE
:00000001FF
